{
  "_format": "hh-sol-artifact-1",
  "contractName": "SplitBill",
  "sourceName": "contracts/SplitBill.sol",
  "abi": [
    {
      "inputs": [
        {
          "internalType": "address",
          "name": "_priceFeed",
          "type": "address"
        }
      ],
      "stateMutability": "nonpayable",
      "type": "constructor"
    },
    {
      "inputs": [
        {
          "internalType": "uint256",
          "name": "",
          "type": "uint256"
        }
      ],
      "name": "bills",
      "outputs": [
        {
          "internalType": "uint256",
          "name": "timestamp",
          "type": "uint256"
        },
        {
          "internalType": "uint256",
          "name": "total",
          "type": "uint256"
        }
      ],
      "stateMutability": "view",
      "type": "function"
    },
    {
      "inputs": [
        {
          "internalType": "uint256",
          "name": "index",
          "type": "uint256"
        }
      ],
      "name": "calculateSettlements",
      "outputs": [
        {
          "internalType": "address[]",
          "name": "froms",
          "type": "address[]"
        },
        {
          "internalType": "address[]",
          "name": "tos",
          "type": "address[]"
        },
        {
          "internalType": "uint256[]",
          "name": "amounts",
          "type": "uint256[]"
        }
      ],
      "stateMutability": "view",
      "type": "function"
    },
    {
      "inputs": [
        {
          "internalType": "string[]",
          "name": "names",
          "type": "string[]"
        },
        {
          "internalType": "address[]",
          "name": "wallets",
          "type": "address[]"
        },
        {
          "internalType": "uint256[]",
          "name": "amounts",
          "type": "uint256[]"
        }
      ],
      "name": "createBill",
      "outputs": [],
      "stateMutability": "nonpayable",
      "type": "function"
    },
    {
      "inputs": [
        {
          "internalType": "uint256",
          "name": "index",
          "type": "uint256"
        }
      ],
      "name": "getBill",
      "outputs": [
        {
          "internalType": "string[]",
          "name": "names",
          "type": "string[]"
        },
        {
          "internalType": "address[]",
          "name": "wallets",
          "type": "address[]"
        },
        {
          "internalType": "uint256[]",
          "name": "amounts",
          "type": "uint256[]"
        },
        {
          "internalType": "bool[]",
          "name": "paid",
          "type": "bool[]"
        },
        {
          "internalType": "uint256",
          "name": "total",
          "type": "uint256"
        },
        {
          "internalType": "uint256",
          "name": "timestamp",
          "type": "uint256"
        }
      ],
      "stateMutability": "view",
      "type": "function"
    },
    {
      "inputs": [],
      "name": "getBillCount",
      "outputs": [
        {
          "internalType": "uint256",
          "name": "",
          "type": "uint256"
        }
      ],
      "stateMutability": "view",
      "type": "function"
    },
    {
      "inputs": [],
      "name": "getLatestETHUSD",
      "outputs": [
        {
          "internalType": "int256",
          "name": "",
          "type": "int256"
        }
      ],
      "stateMutability": "view",
      "type": "function"
    },
    {
      "inputs": [
        {
          "internalType": "uint256",
          "name": "billIndex",
          "type": "uint256"
        }
      ],
      "name": "payShare",
      "outputs": [],
      "stateMutability": "payable",
      "type": "function"
    },
    {
      "inputs": [],
      "name": "priceFeed",
      "outputs": [
        {
          "internalType": "contract AggregatorV3Interface",
          "name": "",
          "type": "address"
        }
      ],
      "stateMutability": "view",
      "type": "function"
    }
  ],
  "bytecode": "0x608060405234801561001057600080fd5b50604051612609380380612609833981810160405281019061003291906100dc565b80600160006101000a81548173ffffffffffffffffffffffffffffffffffffffff021916908373ffffffffffffffffffffffffffffffffffffffff16021790555050610109565b600080fd5b600073ffffffffffffffffffffffffffffffffffffffff82169050919050565b60006100a98261007e565b9050919050565b6100b98161009e565b81146100c457600080fd5b50565b6000815190506100d6816100b0565b92915050565b6000602082840312156100f2576100f1610079565b5b6000610100848285016100c7565b91505092915050565b6124f1806101186000396000f3fe60806040526004361061007b5760003560e01c8063741bef1a1161004e578063741bef1a1461015357806376b6bfcf1461017e578063b1cd06e6146101a7578063c97320a7146101e95761007b565b80631883c7cc1461008057806328bdcde8146100ab5780635dabf107146100e95780636528f46614610114575b600080fd5b34801561008c57600080fd5b50610095610205565b6040516100a291906112f2565b60405180910390f35b3480156100b757600080fd5b506100d260048036038101906100cd9190611343565b610211565b6040516100e0929190611370565b60405180910390f35b3480156100f557600080fd5b506100fe610245565b60405161010b91906113b2565b60405180910390f35b34801561012057600080fd5b5061013b60048036038101906101369190611343565b6102e6565b60405161014a9392919061157b565b60405180910390f35b34801561015f57600080fd5b50610168610a8d565b6040516101759190611626565b60405180910390f35b34801561018a57600080fd5b506101a560048036038101906101a09190611752565b610ab3565b005b3480156101b357600080fd5b506101ce60048036038101906101c99190611343565b610d71565b6040516101e096959493929190611a22565b60405180910390f35b61020360048036038101906101fe9190611343565b6110f6565b005b60008080549050905090565b6000818154811061022157600080fd5b90600052602060002090600302016000915090508060010154908060020154905082565b600080600160009054906101000a900473ffffffffffffffffffffffffffffffffffffffff1673ffffffffffffffffffffffffffffffffffffffff1663feaf968c6040518163ffffffff1660e01b815260040160a060405180830381865afa1580156102b5573d6000803e3d6000fd5b505050506040513d601f19601f820116820180604052508101906102d99190611b22565b5050509150508091505090565b60608060606000805490508410610332576040517f08c379a000000000000000000000000000000000000000000000000000000000815260040161032990611bfa565b60405180910390fd5b600080858154811061034757610346611c1a565b5b9060005260206000209060030201905060008160000180549050905060028110156103a7576040517f08c379a000000000000000000000000000000000000000000000000000000000815260040161039e90611c95565b60405180910390fd5b600080600090505b828110156103f9578360000181815481106103cd576103cc611c1a565b5b906000526020600020906004020160020154826103ea9190611ce4565b915080806001019150506103af565b50600082826104089190611d47565b905060008367ffffffffffffffff81111561042657610425611d78565b5b6040519080825280602002602001820160405280156104545781602001602082028036833780820191505090505b50905060005b848110156104c1578286600001828154811061047957610478611c1a565b5b9060005260206000209060040201600201546104959190611da7565b8282815181106104a8576104a7611c1a565b5b602002602001018181525050808060010191505061045a565b50600084856104d09190611dea565b67ffffffffffffffff8111156104e9576104e8611d78565b5b6040519080825280602002602001820160405280156105175781602001602082028036833780820191505090505b509050600085866105289190611dea565b67ffffffffffffffff81111561054157610540611d78565b5b60405190808252806020026020018201604052801561056f5781602001602082028036833780820191505090505b509050600086876105809190611dea565b67ffffffffffffffff81111561059957610598611d78565b5b6040519080825280602002602001820160405280156105c75781602001602082028036833780820191505090505b5090506000805b888110156108785760008682815181106105eb576105ea611c1a565b5b6020026020010151121561086b5760005b8981101561086957600087828151811061061957610618611c1a565b5b6020026020010151131561085c57600061067088848151811061063f5761063e611c1a565b5b602002602001015161065090611e2c565b89848151811061066357610662611c1a565b5b60200260200101516112c0565b90506000811315610832578b600001838154811061069157610690611c1a565b5b906000526020600020906004020160010160009054906101000a900473ffffffffffffffffffffffffffffffffffffffff168785815181106106d6576106d5611c1a565b5b602002602001019073ffffffffffffffffffffffffffffffffffffffff16908173ffffffffffffffffffffffffffffffffffffffff16815250508b600001828154811061072657610725611c1a565b5b906000526020600020906004020160010160009054906101000a900473ffffffffffffffffffffffffffffffffffffffff1686858151811061076b5761076a611c1a565b5b602002602001019073ffffffffffffffffffffffffffffffffffffffff16908173ffffffffffffffffffffffffffffffffffffffff1681525050808585815181106107b9576107b8611c1a565b5b602002602001018181525050808884815181106107d9576107d8611c1a565b5b602002602001018181516107ed9190611e74565b915081815250508088838151811061080857610807611c1a565b5b6020026020010181815161081c9190611da7565b91508181525050838061082e90611eb8565b9450505b600088848151811061084757610846611c1a565b5b60200260200101510361085a5750610869565b505b80806001019150506105fc565b505b80806001019150506105ce565b508067ffffffffffffffff81111561089357610892611d78565b5b6040519080825280602002602001820160405280156108c15781602001602082028036833780820191505090505b509b508067ffffffffffffffff8111156108de576108dd611d78565b5b60405190808252806020026020018201604052801561090c5781602001602082028036833780820191505090505b509a508067ffffffffffffffff81111561092957610928611d78565b5b6040519080825280602002602001820160405280156109575781602001602082028036833780820191505090505b50995060005b81811015610a7c5784818151811061097857610977611c1a565b5b60200260200101518d828151811061099357610992611c1a565b5b602002602001019073ffffffffffffffffffffffffffffffffffffffff16908173ffffffffffffffffffffffffffffffffffffffff16815250508381815181106109e0576109df611c1a565b5b60200260200101518c82815181106109fb576109fa611c1a565b5b602002602001019073ffffffffffffffffffffffffffffffffffffffff16908173ffffffffffffffffffffffffffffffffffffffff1681525050828181518110610a4857610a47611c1a565b5b60200260200101518b8281518110610a6357610a62611c1a565b5b602002602001018181525050808060010191505061095d565b505050505050505050509193909250565b600160009054906101000a900473ffffffffffffffffffffffffffffffffffffffff1681565b8383905086869050148015610acd57508181905084849050145b610b0c576040517f08c379a0000000000000000000000000000000000000000000000000000000008152600401610b0390611f4c565b60405180910390fd5b6002868690501015610b53576040517f08c379a0000000000000000000000000000000000000000000000000000000008152600401610b4a90611fb8565b60405180910390fd5b6000806001816001815401808255809150500390600052602060002090600302019050428160010181905550600080600090505b88889050811015610d5d578260000160405180608001604052808b8b85818110610bb457610bb3611c1a565b5b9050602002810190610bc69190611fe7565b8080601f016020809104026020016040519081016040528093929190818152602001838380828437600081840152601f19601f820116905080830192505050505050508152602001898985818110610c2157610c20611c1a565b5b9050602002016020810190610c369190612076565b73ffffffffffffffffffffffffffffffffffffffff168152602001878785818110610c6457610c63611c1a565b5b9050602002013581526020016000151581525090806001815401808255809150506001900390600052602060002090600402016000909190919091506000820151816000019081610cb591906122a5565b5060208201518160010160006101000a81548173ffffffffffffffffffffffffffffffffffffffff021916908373ffffffffffffffffffffffffffffffffffffffff1602179055506040820151816002015560608201518160030160006101000a81548160ff0219169083151502179055505050848482818110610d3c57610d3b611c1a565b5b9050602002013582610d4e9190611ce4565b91508080600101915050610b87565b508082600201819055505050505050505050565b6060806060806000806000805490508710610dc1576040517f08c379a0000000000000000000000000000000000000000000000000000000008152600401610db890611bfa565b60405180910390fd5b6000808881548110610dd657610dd5611c1a565b5b906000526020600020906003020190506000816000018054905090508067ffffffffffffffff811115610e0c57610e0b611d78565b5b604051908082528060200260200182016040528015610e3f57816020015b6060815260200190600190039081610e2a5790505b5097508067ffffffffffffffff811115610e5c57610e5b611d78565b5b604051908082528060200260200182016040528015610e8a5781602001602082028036833780820191505090505b5096508067ffffffffffffffff811115610ea757610ea6611d78565b5b604051908082528060200260200182016040528015610ed55781602001602082028036833780820191505090505b5095508067ffffffffffffffff811115610ef257610ef1611d78565b5b604051908082528060200260200182016040528015610f205781602001602082028036833780820191505090505b50945060005b818110156110dc576000836000018281548110610f4657610f45611c1a565b5b90600052602060002090600402019050806000018054610f65906120d2565b80601f0160208091040260200160405190810160405280929190818152602001828054610f91906120d2565b8015610fde5780601f10610fb357610100808354040283529160200191610fde565b820191906000526020600020905b815481529060010190602001808311610fc157829003601f168201915b50505050508a8381518110610ff657610ff5611c1a565b5b60200260200101819052508060010160009054906101000a900473ffffffffffffffffffffffffffffffffffffffff1689838151811061103957611038611c1a565b5b602002602001019073ffffffffffffffffffffffffffffffffffffffff16908173ffffffffffffffffffffffffffffffffffffffff1681525050806002015488838151811061108b5761108a611c1a565b5b6020026020010181815250508060030160009054906101000a900460ff168783815181106110bc576110bb611c1a565b5b602002602001019015159081151581525050508080600101915050610f26565b508160020154935081600101549250505091939550919395565b600080828154811061110b5761110a611c1a565b5b906000526020600020906003020190506000805b826000018054905081101561127a57600083600001828154811061114657611145611c1a565b5b906000526020600020906004020190503373ffffffffffffffffffffffffffffffffffffffff168160010160009054906101000a900473ffffffffffffffffffffffffffffffffffffffff1673ffffffffffffffffffffffffffffffffffffffff160361126c578060030160009054906101000a900460ff16156111ff576040517f08c379a00000000000000000000000000000000000000000000000000000000081526004016111f6906123c3565b60405180910390fd5b80600201543414611245576040517f08c379a000000000000000000000000000000000000000000000000000000000815260040161123c9061242f565b60405180910390fd5b60018160030160006101000a81548160ff021916908315150217905550600192505061127a565b50808060010191505061111f565b50806112bb576040517f08c379a00000000000000000000000000000000000000000000000000000000081526004016112b29061249b565b60405180910390fd5b505050565b60008183126112cf57816112d1565b825b905092915050565b6000819050919050565b6112ec816112d9565b82525050565b600060208201905061130760008301846112e3565b92915050565b600080fd5b600080fd5b611320816112d9565b811461132b57600080fd5b50565b60008135905061133d81611317565b92915050565b6000602082840312156113595761135861130d565b5b60006113678482850161132e565b91505092915050565b600060408201905061138560008301856112e3565b61139260208301846112e3565b9392505050565b6000819050919050565b6113ac81611399565b82525050565b60006020820190506113c760008301846113a3565b92915050565b600081519050919050565b600082825260208201905092915050565b6000819050602082019050919050565b600073ffffffffffffffffffffffffffffffffffffffff82169050919050565b6000611424826113f9565b9050919050565b61143481611419565b82525050565b6000611446838361142b565b60208301905092915050565b6000602082019050919050565b600061146a826113cd565b61147481856113d8565b935061147f836113e9565b8060005b838110156114b0578151611497888261143a565b97506114a283611452565b925050600181019050611483565b5085935050505092915050565b600081519050919050565b600082825260208201905092915050565b6000819050602082019050919050565b6114f2816112d9565b82525050565b600061150483836114e9565b60208301905092915050565b6000602082019050919050565b6000611528826114bd565b61153281856114c8565b935061153d836114d9565b8060005b8381101561156e57815161155588826114f8565b975061156083611510565b925050600181019050611541565b5085935050505092915050565b60006060820190508181036000830152611595818661145f565b905081810360208301526115a9818561145f565b905081810360408301526115bd818461151d565b9050949350505050565b6000819050919050565b60006115ec6115e76115e2846113f9565b6115c7565b6113f9565b9050919050565b60006115fe826115d1565b9050919050565b6000611610826115f3565b9050919050565b61162081611605565b82525050565b600060208201905061163b6000830184611617565b92915050565b600080fd5b600080fd5b600080fd5b60008083601f84011261166657611665611641565b5b8235905067ffffffffffffffff81111561168357611682611646565b5b60208301915083602082028301111561169f5761169e61164b565b5b9250929050565b60008083601f8401126116bc576116bb611641565b5b8235905067ffffffffffffffff8111156116d9576116d8611646565b5b6020830191508360208202830111156116f5576116f461164b565b5b9250929050565b60008083601f84011261171257611711611641565b5b8235905067ffffffffffffffff81111561172f5761172e611646565b5b60208301915083602082028301111561174b5761174a61164b565b5b9250929050565b6000806000806000806060878903121561176f5761176e61130d565b5b600087013567ffffffffffffffff81111561178d5761178c611312565b5b61179989828a01611650565b9650965050602087013567ffffffffffffffff8111156117bc576117bb611312565b5b6117c889828a016116a6565b9450945050604087013567ffffffffffffffff8111156117eb576117ea611312565b5b6117f789828a016116fc565b92509250509295509295509295565b600081519050919050565b600082825260208201905092915050565b6000819050602082019050919050565b600081519050919050565b600082825260208201905092915050565b60005b8381101561186c578082015181840152602081019050611851565b60008484015250505050565b6000601f19601f8301169050919050565b600061189482611832565b61189e818561183d565b93506118ae81856020860161184e565b6118b781611878565b840191505092915050565b60006118ce8383611889565b905092915050565b6000602082019050919050565b60006118ee82611806565b6118f88185611811565b93508360208202850161190a85611822565b8060005b85811015611946578484038952815161192785826118c2565b9450611932836118d6565b925060208a0199505060018101905061190e565b50829750879550505050505092915050565b600081519050919050565b600082825260208201905092915050565b6000819050602082019050919050565b60008115159050919050565b61199981611984565b82525050565b60006119ab8383611990565b60208301905092915050565b6000602082019050919050565b60006119cf82611958565b6119d98185611963565b93506119e483611974565b8060005b83811015611a155781516119fc888261199f565b9750611a07836119b7565b9250506001810190506119e8565b5085935050505092915050565b600060c0820190508181036000830152611a3c81896118e3565b90508181036020830152611a50818861145f565b90508181036040830152611a64818761151d565b90508181036060830152611a7881866119c4565b9050611a8760808301856112e3565b611a9460a08301846112e3565b979650505050505050565b600069ffffffffffffffffffff82169050919050565b611abe81611a9f565b8114611ac957600080fd5b50565b600081519050611adb81611ab5565b92915050565b611aea81611399565b8114611af557600080fd5b50565b600081519050611b0781611ae1565b92915050565b600081519050611b1c81611317565b92915050565b600080600080600060a08688031215611b3e57611b3d61130d565b5b6000611b4c88828901611acc565b9550506020611b5d88828901611af8565b9450506040611b6e88828901611b0d565b9350506060611b7f88828901611b0d565b9250506080611b9088828901611acc565b9150509295509295909350565b600082825260208201905092915050565b7f496e76616c69642062696c6c20696e6465780000000000000000000000000000600082015250565b6000611be4601283611b9d565b9150611bef82611bae565b602082019050919050565b60006020820190508181036000830152611c1381611bd7565b9050919050565b7f4e487b7100000000000000000000000000000000000000000000000000000000600052603260045260246000fd5b7f4174206c656173742032207061727469636970616e7473000000000000000000600082015250565b6000611c7f601783611b9d565b9150611c8a82611c49565b602082019050919050565b60006020820190508181036000830152611cae81611c72565b9050919050565b7f4e487b7100000000000000000000000000000000000000000000000000000000600052601160045260246000fd5b6000611cef826112d9565b9150611cfa836112d9565b9250828201905080821115611d1257611d11611cb5565b5b92915050565b7f4e487b7100000000000000000000000000000000000000000000000000000000600052601260045260246000fd5b6000611d52826112d9565b9150611d5d836112d9565b925082611d6d57611d6c611d18565b5b828204905092915050565b7f4e487b7100000000000000000000000000000000000000000000000000000000600052604160045260246000fd5b6000611db282611399565b9150611dbd83611399565b9250828203905081811260008412168282136000851215161715611de457611de3611cb5565b5b92915050565b6000611df5826112d9565b9150611e00836112d9565b9250828202611e0e816112d9565b91508282048414831517611e2557611e24611cb5565b5b5092915050565b6000611e3782611399565b91507f80000000000000000000000000000000000000000000000000000000000000008203611e6957611e68611cb5565b5b816000039050919050565b6000611e7f82611399565b9150611e8a83611399565b925082820190508281121560008312168382126000841215161715611eb257611eb1611cb5565b5b92915050565b6000611ec3826112d9565b91507fffffffffffffffffffffffffffffffffffffffffffffffffffffffffffffffff8203611ef557611ef4611cb5565b5b600182019050919050565b7f4d69736d61746368656420696e707574206c656e677468730000000000000000600082015250565b6000611f36601883611b9d565b9150611f4182611f00565b602082019050919050565b60006020820190508181036000830152611f6581611f29565b9050919050565b7f4174206c656173742032207061727469636970616e7473207265717569726564600082015250565b6000611fa2602083611b9d565b9150611fad82611f6c565b602082019050919050565b60006020820190508181036000830152611fd181611f95565b9050919050565b600080fd5b600080fd5b600080fd5b6000808335600160200384360303811261200457612003611fd8565b5b80840192508235915067ffffffffffffffff82111561202657612025611fdd565b5b60208301925060018202360383131561204257612041611fe2565b5b509250929050565b61205381611419565b811461205e57600080fd5b50565b6000813590506120708161204a565b92915050565b60006020828403121561208c5761208b61130d565b5b600061209a84828501612061565b91505092915050565b7f4e487b7100000000000000000000000000000000000000000000000000000000600052602260045260246000fd5b600060028204905060018216806120ea57607f821691505b6020821081036120fd576120fc6120a3565b5b50919050565b60008190508160005260206000209050919050565b60006020601f8301049050919050565b600082821b905092915050565b6000600883026121657fffffffffffffffffffffffffffffffffffffffffffffffffffffffffffffffff82612128565b61216f8683612128565b95508019841693508086168417925050509392505050565b60006121a261219d612198846112d9565b6115c7565b6112d9565b9050919050565b6000819050919050565b6121bc83612187565b6121d06121c8826121a9565b848454612135565b825550505050565b600090565b6121e56121d8565b6121f08184846121b3565b505050565b5b81811015612214576122096000826121dd565b6001810190506121f6565b5050565b601f8211156122595761222a81612103565b61223384612118565b81016020851015612242578190505b61225661224e85612118565b8301826121f5565b50505b505050565b600082821c905092915050565b600061227c6000198460080261225e565b1980831691505092915050565b6000612295838361226b565b9150826002028217905092915050565b6122ae82611832565b67ffffffffffffffff8111156122c7576122c6611d78565b5b6122d182546120d2565b6122dc828285612218565b600060209050601f83116001811461230f57600084156122fd578287015190505b6123078582612289565b86555061236f565b601f19841661231d86612103565b60005b8281101561234557848901518255600182019150602085019450602081019050612320565b86831015612362578489015161235e601f89168261226b565b8355505b6001600288020188555050505b505050505050565b7f416c726561647920706169640000000000000000000000000000000000000000600082015250565b60006123ad600c83611b9d565b91506123b882612377565b602082019050919050565b600060208201905081810360008301526123dc816123a0565b9050919050565b7f496e636f7272656374207061796d656e7420616d6f756e740000000000000000600082015250565b6000612419601883611b9d565b9150612424826123e3565b602082019050919050565b600060208201905081810360008301526124488161240c565b9050919050565b7f4e6f742061207061727469636970616e74000000000000000000000000000000600082015250565b6000612485601183611b9d565b91506124908261244f565b602082019050919050565b600060208201905081810360008301526124b481612478565b905091905056fea2646970667358221220ca0e88d5411c75d2e677ecb36ac9b7d4da9b83d48a65ecd2cbaed03f9f6ea5d664736f6c634300081c0033",
  "linkReferences": {},
  "deployedLinkReferences": {}
}